{
  "_format": "hh-sol-artifact-1",
  "contractName": "MultiSig",
  "sourceName": "contracts/MultiSig.sol",
  "abi": [
    {
      "inputs": [
        {
          "internalType": "address[]",
          "name": "_owners",
          "type": "address[]"
        },
        {
          "internalType": "uint256",
          "name": "_required",
          "type": "uint256"
        }
      ],
      "stateMutability": "nonpayable",
      "type": "constructor"
    },
    {
      "anonymous": false,
      "inputs": [
        {
          "indexed": true,
          "internalType": "address",
          "name": "owner",
          "type": "address"
        },
        {
          "indexed": true,
          "internalType": "string",
          "name": "txId",
          "type": "string"
        }
      ],
      "name": "Approve",
      "type": "event"
    },
    {
      "anonymous": false,
      "inputs": [
        {
          "indexed": true,
          "internalType": "address",
          "name": "sender",
          "type": "address"
        },
        {
          "indexed": false,
          "internalType": "uint256",
          "name": "amount",
          "type": "uint256"
        }
      ],
      "name": "Deposit",
      "type": "event"
    },
    {
      "anonymous": false,
      "inputs": [
        {
          "indexed": true,
          "internalType": "string",
          "name": "txId",
          "type": "string"
        }
      ],
      "name": "Execute",
      "type": "event"
    },
    {
      "anonymous": false,
      "inputs": [
        {
          "indexed": true,
          "internalType": "address",
          "name": "owner",
          "type": "address"
        },
        {
          "indexed": true,
          "internalType": "string",
          "name": "txId",
          "type": "string"
        }
      ],
      "name": "Revoke",
      "type": "event"
    },
    {
      "anonymous": false,
      "inputs": [
        {
          "indexed": false,
          "internalType": "string",
          "name": "txId",
          "type": "string"
        },
        {
          "indexed": false,
          "internalType": "enum MultiSig.Operation",
          "name": "opr",
          "type": "uint8"
        }
      ],
      "name": "Submit",
      "type": "event"
    },
    {
      "inputs": [
        {
          "internalType": "string",
          "name": "txId",
          "type": "string"
        },
        {
          "internalType": "address",
          "name": "contractAddress",
          "type": "address"
        },
        {
          "internalType": "string",
          "name": "tokenId",
          "type": "string"
        }
      ],
      "name": "addContract",
      "outputs": [],
      "stateMutability": "nonpayable",
      "type": "function"
    },
    {
      "inputs": [
        {
          "internalType": "string",
          "name": "txId",
          "type": "string"
        },
        {
          "internalType": "address",
          "name": "account",
          "type": "address"
        },
        {
          "internalType": "uint256",
          "name": "newRequired",
          "type": "uint256"
        },
        {
          "internalType": "string",
          "name": "empty",
          "type": "string"
        }
      ],
      "name": "addMember",
      "outputs": [],
      "stateMutability": "nonpayable",
      "type": "function"
    },
    {
      "inputs": [
        {
          "internalType": "string",
          "name": "_txId",
          "type": "string"
        }
      ],
      "name": "approve",
      "outputs": [],
      "stateMutability": "nonpayable",
      "type": "function"
    },
    {
      "inputs": [
        {
          "internalType": "string",
          "name": "",
          "type": "string"
        },
        {
          "internalType": "address",
          "name": "",
          "type": "address"
        }
      ],
      "name": "approved",
      "outputs": [
        {
          "internalType": "bool",
          "name": "",
          "type": "bool"
        }
      ],
      "stateMutability": "view",
      "type": "function"
    },
    {
      "inputs": [],
      "name": "deposit",
      "outputs": [],
      "stateMutability": "payable",
      "type": "function"
    },
    {
      "inputs": [
        {
          "internalType": "string",
          "name": "_txId",
          "type": "string"
        }
      ],
      "name": "execute",
      "outputs": [],
      "stateMutability": "nonpayable",
      "type": "function"
    },
    {
      "inputs": [
        {
          "internalType": "address",
          "name": "",
          "type": "address"
        }
      ],
      "name": "isOwner",
      "outputs": [
        {
          "internalType": "bool",
          "name": "",
          "type": "bool"
        }
      ],
      "stateMutability": "view",
      "type": "function"
    },
    {
      "inputs": [
        {
          "internalType": "string",
          "name": "txId",
          "type": "string"
        },
        {
          "internalType": "address",
          "name": "to",
          "type": "address"
        },
        {
          "internalType": "uint256",
          "name": "amount",
          "type": "uint256"
        },
        {
          "internalType": "string",
          "name": "tokenId",
          "type": "string"
        }
      ],
      "name": "mint",
      "outputs": [],
      "stateMutability": "nonpayable",
      "type": "function"
    },
    {
      "inputs": [
        {
          "internalType": "uint256",
          "name": "",
          "type": "uint256"
        }
      ],
      "name": "owners",
      "outputs": [
        {
          "internalType": "address",
          "name": "",
          "type": "address"
        }
      ],
      "stateMutability": "view",
      "type": "function"
    },
    {
      "inputs": [
        {
          "internalType": "string",
          "name": "txId",
          "type": "string"
        },
        {
          "internalType": "string",
          "name": "tokenId",
          "type": "string"
        }
      ],
      "name": "removeContract",
      "outputs": [],
      "stateMutability": "nonpayable",
      "type": "function"
    },
    {
      "inputs": [
        {
          "internalType": "string",
          "name": "txId",
          "type": "string"
        },
        {
          "internalType": "address",
          "name": "account",
          "type": "address"
        },
        {
          "internalType": "uint256",
          "name": "newRequired",
          "type": "uint256"
        },
        {
          "internalType": "string",
          "name": "empty",
          "type": "string"
        }
      ],
      "name": "removeMember",
      "outputs": [],
      "stateMutability": "nonpayable",
      "type": "function"
    },
    {
      "inputs": [],
      "name": "required",
      "outputs": [
        {
          "internalType": "uint256",
          "name": "",
          "type": "uint256"
        }
      ],
      "stateMutability": "view",
      "type": "function"
    },
    {
      "inputs": [
        {
          "internalType": "string",
          "name": "_txId",
          "type": "string"
        }
      ],
      "name": "revoke",
      "outputs": [],
      "stateMutability": "nonpayable",
      "type": "function"
    },
    {
      "inputs": [
        {
          "internalType": "string",
          "name": "txId",
          "type": "string"
        },
        {
          "internalType": "string",
          "name": "tokenId",
          "type": "string"
        },
        {
          "internalType": "address",
          "name": "newOwner",
          "type": "address"
        }
      ],
      "name": "transferOwnership",
      "outputs": [],
      "stateMutability": "nonpayable",
      "type": "function"
    },
    {
      "inputs": [
        {
          "internalType": "address",
          "name": "easyReturnAddress",
          "type": "address"
        }
      ],
      "name": "withdraw",
      "outputs": [],
      "stateMutability": "nonpayable",
      "type": "function"
    },
    {
      "stateMutability": "payable",
      "type": "receive"
    }
  ],
  "bytecode": "0x60806040523480156200001157600080fd5b506040516200381338038062003813833981810160405281019062000037919062000506565b60008251116200007e576040517f08c379a00000000000000000000000000000000000000000000000000000000081526004016200007590620005cd565b60405180910390fd5b60008111801562000090575081518111155b620000d2576040517f08c379a0000000000000000000000000000000000000000000000000000000008152600401620000c99062000665565b60405180910390fd5b60005b8251811015620002cd576000838281518110620000f757620000f662000687565b5b60200260200101519050600073ffffffffffffffffffffffffffffffffffffffff168173ffffffffffffffffffffffffffffffffffffffff160362000173576040517f08c379a00000000000000000000000000000000000000000000000000000000081526004016200016a9062000706565b60405180910390fd5b600260008273ffffffffffffffffffffffffffffffffffffffff1673ffffffffffffffffffffffffffffffffffffffff16815260200190815260200160002060009054906101000a900460ff161562000203576040517f08c379a0000000000000000000000000000000000000000000000000000000008152600401620001fa9062000778565b60405180910390fd5b6001600260008373ffffffffffffffffffffffffffffffffffffffff1673ffffffffffffffffffffffffffffffffffffffff16815260200190815260200160002060006101000a81548160ff0219169083151502179055506001819080600181540180825580915050600190039060005260206000200160009091909190916101000a81548173ffffffffffffffffffffffffffffffffffffffff021916908373ffffffffffffffffffffffffffffffffffffffff160217905550508080600101915050620000d5565b508060008190555050506200079a565b6000604051905090565b600080fd5b600080fd5b600080fd5b6000601f19601f8301169050919050565b7f4e487b7100000000000000000000000000000000000000000000000000000000600052604160045260246000fd5b6200034182620002f6565b810181811067ffffffffffffffff8211171562000363576200036262000307565b5b80604052505050565b600062000378620002dd565b905062000386828262000336565b919050565b600067ffffffffffffffff821115620003a957620003a862000307565b5b602082029050602081019050919050565b600080fd5b600073ffffffffffffffffffffffffffffffffffffffff82169050919050565b6000620003ec82620003bf565b9050919050565b620003fe81620003df565b81146200040a57600080fd5b50565b6000815190506200041e81620003f3565b92915050565b60006200043b62000435846200038b565b6200036c565b90508083825260208201905060208402830185811115620004615762000460620003ba565b5b835b818110156200048e57806200047988826200040d565b84526020840193505060208101905062000463565b5050509392505050565b600082601f830112620004b057620004af620002f1565b5b8151620004c284826020860162000424565b91505092915050565b6000819050919050565b620004e081620004cb565b8114620004ec57600080fd5b50565b6000815190506200050081620004d5565b92915050565b6000806040838503121562000520576200051f620002e7565b5b600083015167ffffffffffffffff811115620005415762000540620002ec565b5b6200054f8582860162000498565b92505060206200056285828601620004ef565b9150509250929050565b600082825260208201905092915050565b7f6f776e6572287329207265717569726564000000000000000000000000000000600082015250565b6000620005b56011836200056c565b9150620005c2826200057d565b602082019050919050565b60006020820190508181036000830152620005e881620005a6565b9050919050565b7f696e76616c6964207265717569726564206e756d626572206f66206f776e657260008201527f7300000000000000000000000000000000000000000000000000000000000000602082015250565b60006200064d6021836200056c565b91506200065a82620005ef565b604082019050919050565b6000602082019050818103600083015262000680816200063e565b9050919050565b7f4e487b7100000000000000000000000000000000000000000000000000000000600052603260045260246000fd5b7f696e76616c6964206f776e657200000000000000000000000000000000000000600082015250565b6000620006ee600d836200056c565b9150620006fb82620006b6565b602082019050919050565b600060208201905081810360008301526200072181620006df565b9050919050565b7f6f776e6572206973206e6f7420756e6971756500000000000000000000000000600082015250565b6000620007606013836200056c565b91506200076d8262000728565b602082019050919050565b60006020820190508181036000830152620007938162000751565b9050919050565b61306980620007aa6000396000f3fe6080604052600436106100ec5760003560e01c8063b67b71631161008a578063dc2ad21011610059578063dc2ad21014610312578063dc8452cd1461033b578063e5bb796914610366578063ecedaf4c146103a357610141565b8063b67b71631461028d578063bd590d7e146102b6578063cb49c209146102df578063d0e30db01461030857610141565b806351cff8d9116100c657806351cff8d9146101e957806365b2a863146102125780637d6929e01461023b578063b5afc3291461026457610141565b8063025e7c2714610146578063122862f9146101835780632f54bf6e146101ac57610141565b36610141573373ffffffffffffffffffffffffffffffffffffffff167fe1fffcc4923d04b559f4d29a8bfc6cda04eb5b0d3c460751c2402c5c5cc9109c346040516101379190612016565b60405180910390a2005b600080fd5b34801561015257600080fd5b5061016d60048036038101906101689190612071565b6103cc565b60405161017a91906120df565b60405180910390f35b34801561018f57600080fd5b506101aa60048036038101906101a5919061218b565b61040b565b005b3480156101b857600080fd5b506101d360048036038101906101ce9190612220565b610562565b6040516101e09190612268565b60405180910390f35b3480156101f557600080fd5b50610210600480360381019061020b9190612220565b610582565b005b34801561021e57600080fd5b5061023960048036038101906102349190612283565b6105cc565b005b34801561024757600080fd5b50610262600480360381019061025d91906122d0565b610902565b005b34801561027057600080fd5b5061028b60048036038101906102869190612365565b610ae8565b005b34801561029957600080fd5b506102b460048036038101906102af9190612283565b610b8c565b005b3480156102c257600080fd5b506102dd60048036038101906102d89190612283565b610ec7565b005b3480156102eb57600080fd5b5061030660048036038101906103019190612365565b611670565b005b6103106117c7565b005b34801561031e57600080fd5b5061033960048036038101906103349190612365565b611817565b005b34801561034757600080fd5b506103506118bb565b60405161035d9190612016565b60405180910390f35b34801561037257600080fd5b5061038d6004803603810190610388919061254d565b6118c1565b60405161039a9190612268565b60405180910390f35b3480156103af57600080fd5b506103ca60048036038101906103c591906125a9565b611906565b005b600181815481106103dc57600080fd5b906000526020600020016000915054906101000a900473ffffffffffffffffffffffffffffffffffffffff1681565b8282600073ffffffffffffffffffffffffffffffffffffffff166003838360405161043792919061265a565b908152602001604051809103902060009054906101000a900473ffffffffffffffffffffffffffffffffffffffff1673ffffffffffffffffffffffffffffffffffffffff16036104bc576040517f08c379a00000000000000000000000000000000000000000000000000000000081526004016104b3906126d0565b60405180910390fd5b600260003373ffffffffffffffffffffffffffffffffffffffff1673ffffffffffffffffffffffffffffffffffffffff16815260200190815260200160002060009054906101000a900460ff16610548576040517f08c379a000000000000000000000000000000000000000000000000000000000815260040161053f9061273c565b60405180910390fd5b610559878760038660008a8a611a9c565b50505050505050565b60026020528060005260406000206000915054906101000a900460ff1681565b8073ffffffffffffffffffffffffffffffffffffffff166108fc479081150290604051600060405180830381858888f193505050501580156105c8573d6000803e3d6000fd5b5050565b600260003373ffffffffffffffffffffffffffffffffffffffff1673ffffffffffffffffffffffffffffffffffffffff16815260200190815260200160002060009054906101000a900460ff16610658576040517f08c379a000000000000000000000000000000000000000000000000000000000815260040161064f9061273c565b60405180910390fd5b8181600073ffffffffffffffffffffffffffffffffffffffff166005838360405161068492919061265a565b908152602001604051809103902060000160019054906101000a900473ffffffffffffffffffffffffffffffffffffffff1673ffffffffffffffffffffffffffffffffffffffff160361070c576040517f08c379a0000000000000000000000000000000000000000000000000000000008152600401610703906127a8565b60405180910390fd5b83836005828260405161072092919061265a565b908152602001604051809103902060030160009054906101000a900460ff161561077f576040517f08c379a000000000000000000000000000000000000000000000000000000000815260040161077690612814565b60405180910390fd5b6006868660405161079192919061265a565b908152602001604051809103902060003373ffffffffffffffffffffffffffffffffffffffff1673ffffffffffffffffffffffffffffffffffffffff16815260200190815260200160002060009054906101000a900460ff16610829576040517f08c379a000000000000000000000000000000000000000000000000000000000815260040161082090612880565b60405180910390fd5b60006006878760405161083d92919061265a565b908152602001604051809103902060003373ffffffffffffffffffffffffffffffffffffffff1673ffffffffffffffffffffffffffffffffffffffff16815260200190815260200160002060006101000a81548160ff02191690831515021790555085856040516108af92919061265a565b60405180910390203373ffffffffffffffffffffffffffffffffffffffff167f2fa80445a7995a05a1a47457227da064b86a578212322a7cd41a235d469749a160405160405180910390a3505050505050565b828282600460008473ffffffffffffffffffffffffffffffffffffffff1673ffffffffffffffffffffffffffffffffffffffff16815260200190815260200160002060009054906101000a900460ff1615610992576040517f08c379a0000000000000000000000000000000000000000000000000000000008152600401610989906128ec565b60405180910390fd5b600073ffffffffffffffffffffffffffffffffffffffff16600383836040516109bc92919061265a565b908152602001604051809103902060009054906101000a900473ffffffffffffffffffffffffffffffffffffffff1673ffffffffffffffffffffffffffffffffffffffff1614610a41576040517f08c379a0000000000000000000000000000000000000000000000000000000008152600401610a3890612958565b60405180910390fd5b600260003373ffffffffffffffffffffffffffffffffffffffff1673ffffffffffffffffffffffffffffffffffffffff16815260200190815260200160002060009054906101000a900460ff16610acd576040517f08c379a0000000000000000000000000000000000000000000000000000000008152600401610ac49061273c565b60405180910390fd5b610ade888860018960008a8a611a9c565b5050505050505050565b600260003373ffffffffffffffffffffffffffffffffffffffff1673ffffffffffffffffffffffffffffffffffffffff16815260200190815260200160002060009054906101000a900460ff16610b74576040517f08c379a0000000000000000000000000000000000000000000000000000000008152600401610b6b9061273c565b60405180910390fd5b610b848686600587878787611a9c565b505050505050565b600260003373ffffffffffffffffffffffffffffffffffffffff1673ffffffffffffffffffffffffffffffffffffffff16815260200190815260200160002060009054906101000a900460ff16610c18576040517f08c379a0000000000000000000000000000000000000000000000000000000008152600401610c0f9061273c565b60405180910390fd5b8181600073ffffffffffffffffffffffffffffffffffffffff1660058383604051610c4492919061265a565b908152602001604051809103902060000160019054906101000a900473ffffffffffffffffffffffffffffffffffffffff1673ffffffffffffffffffffffffffffffffffffffff1603610ccc576040517f08c379a0000000000000000000000000000000000000000000000000000000008152600401610cc3906127a8565b60405180910390fd5b838360068282604051610ce092919061265a565b908152602001604051809103902060003373ffffffffffffffffffffffffffffffffffffffff1673ffffffffffffffffffffffffffffffffffffffff16815260200190815260200160002060009054906101000a900460ff1615610d79576040517f08c379a0000000000000000000000000000000000000000000000000000000008152600401610d70906129c4565b60405180910390fd5b858560058282604051610d8d92919061265a565b908152602001604051809103902060030160009054906101000a900460ff1615610dec576040517f08c379a0000000000000000000000000000000000000000000000000000000008152600401610de390612814565b60405180910390fd5b600160068989604051610e0092919061265a565b908152602001604051809103902060003373ffffffffffffffffffffffffffffffffffffffff1673ffffffffffffffffffffffffffffffffffffffff16815260200190815260200160002060006101000a81548160ff0219169083151502179055508787604051610e7292919061265a565b60405180910390203373ffffffffffffffffffffffffffffffffffffffff167fbc8d60afb78b35177dacbedd7a2b8bf7c80e9f96d5b936a35c33de5f8d5601af60405160405180910390a35050505050505050565b8181600073ffffffffffffffffffffffffffffffffffffffff1660058383604051610ef392919061265a565b908152602001604051809103902060000160019054906101000a900473ffffffffffffffffffffffffffffffffffffffff1673ffffffffffffffffffffffffffffffffffffffff1603610f7b576040517f08c379a0000000000000000000000000000000000000000000000000000000008152600401610f72906127a8565b60405180910390fd5b838360058282604051610f8f92919061265a565b908152602001604051809103902060030160009054906101000a900460ff1615610fee576040517f08c379a0000000000000000000000000000000000000000000000000000000008152600401610fe590612814565b60405180910390fd5b600054610ffb8787611d92565b101561103c576040517f08c379a000000000000000000000000000000000000000000000000000000000815260040161103390612a30565b60405180910390fd5b60006005878760405161105092919061265a565b908152602001604051809103902090506004600581111561107457611073612a50565b5b8160000160009054906101000a900460ff16600581111561109857611097612a50565b5b036111ac576001600260008360000160019054906101000a900473ffffffffffffffffffffffffffffffffffffffff1673ffffffffffffffffffffffffffffffffffffffff1673ffffffffffffffffffffffffffffffffffffffff16815260200190815260200160002060006101000a81548160ff02191690831515021790555060018160000160019054906101000a900473ffffffffffffffffffffffffffffffffffffffff169080600181540180825580915050600190039060005260206000200160009091909190916101000a81548173ffffffffffffffffffffffffffffffffffffffff021916908373ffffffffffffffffffffffffffffffffffffffff16021790555080600101546000819055505b6005808111156111bf576111be612a50565b5b8160000160009054906101000a900460ff1660058111156111e3576111e2612a50565b5b0361129457600260008260000160019054906101000a900473ffffffffffffffffffffffffffffffffffffffff1673ffffffffffffffffffffffffffffffffffffffff1673ffffffffffffffffffffffffffffffffffffffff16815260200190815260200160002060006101000a81549060ff02191690556112888160000160019054906101000a900473ffffffffffffffffffffffffffffffffffffffff16611e75565b80600101546000819055505b600060058111156112a8576112a7612a50565b5b8160000160009054906101000a900460ff1660058111156112cc576112cb612a50565b5b036113ae5760006003826002016040516112e69190612b77565b908152602001604051809103902060009054906101000a900473ffffffffffffffffffffffffffffffffffffffff1690508073ffffffffffffffffffffffffffffffffffffffff166340c10f198360000160019054906101000a900473ffffffffffffffffffffffffffffffffffffffff1684600101546040518363ffffffff1660e01b815260040161137a929190612b8e565b600060405180830381600087803b15801561139457600080fd5b505af11580156113a8573d6000803e3d6000fd5b50505050505b600360058111156113c2576113c1612a50565b5b8160000160009054906101000a900460ff1660058111156113e6576113e5612a50565b5b036114c25760006003826002016040516114009190612b77565b908152602001604051809103902060009054906101000a900473ffffffffffffffffffffffffffffffffffffffff1690508073ffffffffffffffffffffffffffffffffffffffff1663f2fde38b8360000160019054906101000a900473ffffffffffffffffffffffffffffffffffffffff166040518263ffffffff1660e01b815260040161148e91906120df565b600060405180830381600087803b1580156114a857600080fd5b505af11580156114bc573d6000803e3d6000fd5b50505050505b600160058111156114d6576114d5612a50565b5b8160000160009054906101000a900460ff1660058111156114fa576114f9612a50565b5b03611584578060000160019054906101000a900473ffffffffffffffffffffffffffffffffffffffff166003826002016040516115379190612b77565b908152602001604051809103902060006101000a81548173ffffffffffffffffffffffffffffffffffffffff021916908373ffffffffffffffffffffffffffffffffffffffff1602179055505b6002600581111561159857611597612a50565b5b8160000160009054906101000a900460ff1660058111156115bc576115bb612a50565b5b03611606576003816002016040516115d49190612b77565b908152602001604051809103902060006101000a81549073ffffffffffffffffffffffffffffffffffffffff02191690555b60018160030160006101000a81548160ff021916908315150217905550868660405161163392919061265a565b60405180910390207f0c0a6d6b7baaf91b005883bf427b8976022e20aa6640c821d494f73d76f6451a60405160405180910390a250505050505050565b8181600073ffffffffffffffffffffffffffffffffffffffff166003838360405161169c92919061265a565b908152602001604051809103902060009054906101000a900473ffffffffffffffffffffffffffffffffffffffff1673ffffffffffffffffffffffffffffffffffffffff1603611721576040517f08c379a0000000000000000000000000000000000000000000000000000000008152600401611718906126d0565b60405180910390fd5b600260003373ffffffffffffffffffffffffffffffffffffffff1673ffffffffffffffffffffffffffffffffffffffff16815260200190815260200160002060009054906101000a900460ff166117ad576040517f08c379a00000000000000000000000000000000000000000000000000000000081526004016117a49061273c565b60405180910390fd5b6117bd8888600089898989611a9c565b5050505050505050565b3373ffffffffffffffffffffffffffffffffffffffff167fe1fffcc4923d04b559f4d29a8bfc6cda04eb5b0d3c460751c2402c5c5cc9109c3460405161180d9190612016565b60405180910390a2565b600260003373ffffffffffffffffffffffffffffffffffffffff1673ffffffffffffffffffffffffffffffffffffffff16815260200190815260200160002060009054906101000a900460ff166118a3576040517f08c379a000000000000000000000000000000000000000000000000000000000815260040161189a9061273c565b60405180910390fd5b6118b38686600487878787611a9c565b505050505050565b60005481565b6006828051602081018201805184825260208301602085012081835280955050505050506020528060005260406000206000915091509054906101000a900460ff1681565b8181600073ffffffffffffffffffffffffffffffffffffffff166003838360405161193292919061265a565b908152602001604051809103902060009054906101000a900473ffffffffffffffffffffffffffffffffffffffff1673ffffffffffffffffffffffffffffffffffffffff16036119b7576040517f08c379a00000000000000000000000000000000000000000000000000000000081526004016119ae906126d0565b60405180910390fd5b600260003373ffffffffffffffffffffffffffffffffffffffff1673ffffffffffffffffffffffffffffffffffffffff16815260200190815260200160002060009054906101000a900460ff16611a43576040517f08c379a0000000000000000000000000000000000000000000000000000000008152600401611a3a9061273c565b60405180910390fd5b611a948686600260038888604051611a5c92919061265a565b908152602001604051809103902060009054906101000a900473ffffffffffffffffffffffffffffffffffffffff1660008989611a9c565b505050505050565b8686600073ffffffffffffffffffffffffffffffffffffffff1660058383604051611ac892919061265a565b908152602001604051809103902060000160019054906101000a900473ffffffffffffffffffffffffffffffffffffffff1673ffffffffffffffffffffffffffffffffffffffff1614611b50576040517f08c379a0000000000000000000000000000000000000000000000000000000008152600401611b4790612c03565b60405180910390fd5b600260003373ffffffffffffffffffffffffffffffffffffffff1673ffffffffffffffffffffffffffffffffffffffff16815260200190815260200160002060009054906101000a900460ff16611bdc576040517f08c379a0000000000000000000000000000000000000000000000000000000008152600401611bd39061273c565b60405180910390fd5b6040518060a00160405280886005811115611bfa57611bf9612a50565b5b81526020018773ffffffffffffffffffffffffffffffffffffffff16815260200186815260200185858080601f016020809104026020016040519081016040528093929190818152602001838380828437600081840152601f19601f8201169050808301925050505050505081526020016000151581525060058a8a604051611c8492919061265a565b908152602001604051809103902060008201518160000160006101000a81548160ff02191690836005811115611cbd57611cbc612a50565b5b021790555060208201518160000160016101000a81548173ffffffffffffffffffffffffffffffffffffffff021916908373ffffffffffffffffffffffffffffffffffffffff160217905550604082015181600101556060820151816002019081611d289190612dc5565b5060808201518160030160006101000a81548160ff0219169083151502179055509050507f4ae060fcd604d73f549622f9cfb12f0e178e38cb5e79796c39f6e1c913bc2aea898989604051611d7f93929190612f0c565b60405180910390a1505050505050505050565b6000805b600180549050811015611e6e5760068484604051611db592919061265a565b9081526020016040518091039020600060018381548110611dd957611dd8612f3e565b5b9060005260206000200160009054906101000a900473ffffffffffffffffffffffffffffffffffffffff1673ffffffffffffffffffffffffffffffffffffffff1673ffffffffffffffffffffffffffffffffffffffff16815260200190815260200160002060009054906101000a900460ff1615611e6157600182611e5e9190612f9c565b91505b8080600101915050611d96565b5092915050565b60005b600180549050811015611ff9578173ffffffffffffffffffffffffffffffffffffffff1660018281548110611eb057611eaf612f3e565b5b9060005260206000200160009054906101000a900473ffffffffffffffffffffffffffffffffffffffff1673ffffffffffffffffffffffffffffffffffffffff1603611fec576001808080549050611f089190612fd0565b81548110611f1957611f18612f3e565b5b9060005260206000200160009054906101000a900473ffffffffffffffffffffffffffffffffffffffff1660018281548110611f5857611f57612f3e565b5b9060005260206000200160006101000a81548173ffffffffffffffffffffffffffffffffffffffff021916908373ffffffffffffffffffffffffffffffffffffffff1602179055506001805480611fb257611fb1613004565b5b6001900381819060005260206000200160006101000a81549073ffffffffffffffffffffffffffffffffffffffff02191690559055611ff9565b8080600101915050611e78565b5050565b6000819050919050565b61201081611ffd565b82525050565b600060208201905061202b6000830184612007565b92915050565b6000604051905090565b600080fd5b600080fd5b61204e81611ffd565b811461205957600080fd5b50565b60008135905061206b81612045565b92915050565b6000602082840312156120875761208661203b565b5b60006120958482850161205c565b91505092915050565b600073ffffffffffffffffffffffffffffffffffffffff82169050919050565b60006120c98261209e565b9050919050565b6120d9816120be565b82525050565b60006020820190506120f460008301846120d0565b92915050565b600080fd5b600080fd5b600080fd5b60008083601f84011261211f5761211e6120fa565b5b8235905067ffffffffffffffff81111561213c5761213b6120ff565b5b60208301915083600182028301111561215857612157612104565b5b9250929050565b612168816120be565b811461217357600080fd5b50565b6000813590506121858161215f565b92915050565b6000806000806000606086880312156121a7576121a661203b565b5b600086013567ffffffffffffffff8111156121c5576121c4612040565b5b6121d188828901612109565b9550955050602086013567ffffffffffffffff8111156121f4576121f3612040565b5b61220088828901612109565b9350935050604061221388828901612176565b9150509295509295909350565b6000602082840312156122365761223561203b565b5b600061224484828501612176565b91505092915050565b60008115159050919050565b6122628161224d565b82525050565b600060208201905061227d6000830184612259565b92915050565b6000806020838503121561229a5761229961203b565b5b600083013567ffffffffffffffff8111156122b8576122b7612040565b5b6122c485828601612109565b92509250509250929050565b6000806000806000606086880312156122ec576122eb61203b565b5b600086013567ffffffffffffffff81111561230a57612309612040565b5b61231688828901612109565b9550955050602061232988828901612176565b935050604086013567ffffffffffffffff81111561234a57612349612040565b5b61235688828901612109565b92509250509295509295909350565b600080600080600080608087890312156123825761238161203b565b5b600087013567ffffffffffffffff8111156123a05761239f612040565b5b6123ac89828a01612109565b965096505060206123bf89828a01612176565b94505060406123d089828a0161205c565b935050606087013567ffffffffffffffff8111156123f1576123f0612040565b5b6123fd89828a01612109565b92509250509295509295509295565b600080fd5b6000601f19601f8301169050919050565b7f4e487b7100000000000000000000000000000000000000000000000000000000600052604160045260246000fd5b61245a82612411565b810181811067ffffffffffffffff8211171561247957612478612422565b5b80604052505050565b600061248c612031565b90506124988282612451565b919050565b600067ffffffffffffffff8211156124b8576124b7612422565b5b6124c182612411565b9050602081019050919050565b82818337600083830152505050565b60006124f06124eb8461249d565b612482565b90508281526020810184848401111561250c5761250b61240c565b5b6125178482856124ce565b509392505050565b600082601f830112612534576125336120fa565b5b81356125448482602086016124dd565b91505092915050565b600080604083850312156125645761256361203b565b5b600083013567ffffffffffffffff81111561258257612581612040565b5b61258e8582860161251f565b925050602061259f85828601612176565b9150509250929050565b600080600080604085870312156125c3576125c261203b565b5b600085013567ffffffffffffffff8111156125e1576125e0612040565b5b6125ed87828801612109565b9450945050602085013567ffffffffffffffff8111156126105761260f612040565b5b61261c87828801612109565b925092505092959194509250565b600081905092915050565b6000612641838561262a565b935061264e8385846124ce565b82840190509392505050565b6000612667828486612635565b91508190509392505050565b600082825260208201905092915050565b7f546f6b656e206e6f7420666f756e640000000000000000000000000000000000600082015250565b60006126ba600f83612673565b91506126c582612684565b602082019050919050565b600060208201905081810360008301526126e9816126ad565b9050919050565b7f696e76616c6964206f776e657200000000000000000000000000000000000000600082015250565b6000612726600d83612673565b9150612731826126f0565b602082019050919050565b6000602082019050818103600083015261275581612719565b9050919050565b7f747820646f6573206e6f74206578697374000000000000000000000000000000600082015250565b6000612792601183612673565b915061279d8261275c565b602082019050919050565b600060208201905081810360008301526127c181612785565b9050919050565b7f74782077617320616c7265616479206578656375746564000000000000000000600082015250565b60006127fe601783612673565b9150612809826127c8565b602082019050919050565b6000602082019050818103600083015261282d816127f1565b9050919050565b7f7478206e6f7420617070726f7665640000000000000000000000000000000000600082015250565b600061286a600f83612673565b915061287582612834565b602082019050919050565b600060208201905081810360008301526128998161285d565b9050919050565b7f546f6b656e206164647265737320616c72656164792065786973740000000000600082015250565b60006128d6601b83612673565b91506128e1826128a0565b602082019050919050565b60006020820190508181036000830152612905816128c9565b9050919050565b7f546f6b656e2073796d626f6c20616c7265616479206578697374000000000000600082015250565b6000612942601a83612673565b915061294d8261290c565b602082019050919050565b6000602082019050818103600083015261297181612935565b9050919050565b7f74782077617320617070726f766564206279206f776e65720000000000000000600082015250565b60006129ae601883612673565b91506129b982612978565b602082019050919050565b600060208201905081810360008301526129dd816129a1565b9050919050565b7f617070726f76616c73206973206c657373207468616e20726571756972656400600082015250565b6000612a1a601f83612673565b9150612a25826129e4565b602082019050919050565b60006020820190508181036000830152612a4981612a0d565b9050919050565b7f4e487b7100000000000000000000000000000000000000000000000000000000600052602160045260246000fd5b7f4e487b7100000000000000000000000000000000000000000000000000000000600052602260045260246000fd5b60006002820490506001821680612ac657607f821691505b602082108103612ad957612ad8612a7f565b5b50919050565b60008190508160005260206000209050919050565b60008154612b0181612aae565b612b0b818661262a565b94506001821660008114612b265760018114612b3b57612b6e565b60ff1983168652811515820286019350612b6e565b612b4485612adf565b60005b83811015612b6657815481890152600182019150602081019050612b47565b838801955050505b50505092915050565b6000612b838284612af4565b915081905092915050565b6000604082019050612ba360008301856120d0565b612bb06020830184612007565b9392505050565b7f747820616c726561647920657869737400000000000000000000000000000000600082015250565b6000612bed601083612673565b9150612bf882612bb7565b602082019050919050565b60006020820190508181036000830152612c1c81612be0565b9050919050565b600081519050919050565b60006020601f8301049050919050565b600082821b905092915050565b600060088302612c7b7fffffffffffffffffffffffffffffffffffffffffffffffffffffffffffffffff82612c3e565b612c858683612c3e565b95508019841693508086168417925050509392505050565b6000819050919050565b6000612cc2612cbd612cb884611ffd565b612c9d565b611ffd565b9050919050565b6000819050919050565b612cdc83612ca7565b612cf0612ce882612cc9565b848454612c4b565b825550505050565b600090565b612d05612cf8565b612d10818484612cd3565b505050565b5b81811015612d3457612d29600082612cfd565b600181019050612d16565b5050565b601f821115612d7957612d4a81612adf565b612d5384612c2e565b81016020851015612d62578190505b612d76612d6e85612c2e565b830182612d15565b50505b505050565b600082821c905092915050565b6000612d9c60001984600802612d7e565b1980831691505092915050565b6000612db58383612d8b565b9150826002028217905092915050565b612dce82612c23565b67ffffffffffffffff811115612de757612de6612422565b5b612df18254612aae565b612dfc828285612d38565b600060209050601f831160018114612e2f5760008415612e1d578287015190505b612e278582612da9565b865550612e8f565b601f198416612e3d86612adf565b60005b82811015612e6557848901518255600182019150602085019450602081019050612e40565b86831015612e825784890151612e7e601f891682612d8b565b8355505b6001600288020188555050505b505050505050565b6000612ea38385612673565b9350612eb08385846124ce565b612eb983612411565b840190509392505050565b60068110612ed557612ed4612a50565b5b50565b6000819050612ee682612ec4565b919050565b6000612ef682612ed8565b9050919050565b612f0681612eeb565b82525050565b60006040820190508181036000830152612f27818587612e97565b9050612f366020830184612efd565b949350505050565b7f4e487b7100000000000000000000000000000000000000000000000000000000600052603260045260246000fd5b7f4e487b7100000000000000000000000000000000000000000000000000000000600052601160045260246000fd5b6000612fa782611ffd565b9150612fb283611ffd565b9250828201905080821115612fca57612fc9612f6d565b5b92915050565b6000612fdb82611ffd565b9150612fe683611ffd565b9250828203905081811115612ffe57612ffd612f6d565b5b92915050565b7f4e487b7100000000000000000000000000000000000000000000000000000000600052603160045260246000fdfea2646970667358221220dcfb610e309e9b76957daf5fcf5347d63ecb8d369827c8f9c5e94eb862cf6a8564736f6c63430008180033",
  "linkReferences": {},
  "deployedLinkReferences": {}
}