{
  "_format": "hh-sol-artifact-1",
  "contractName": "MultiSig",
  "sourceName": "contracts/MultiSig.sol",
  "abi": [
    {
      "inputs": [
        {
          "internalType": "address[]",
          "name": "_owners",
          "type": "address[]"
        },
        {
          "internalType": "uint256",
          "name": "_required",
          "type": "uint256"
        }
      ],
      "stateMutability": "nonpayable",
      "type": "constructor"
    },
    {
      "anonymous": false,
      "inputs": [
        {
          "indexed": false,
          "internalType": "address",
          "name": "owner",
          "type": "address"
        },
        {
          "indexed": false,
          "internalType": "string",
          "name": "txId",
          "type": "string"
        },
        {
          "indexed": false,
          "internalType": "enum MultiSig.Operation",
          "name": "opr",
          "type": "uint8"
        }
      ],
      "name": "Approve",
      "type": "event"
    },
    {
      "anonymous": false,
      "inputs": [
        {
          "indexed": true,
          "internalType": "address",
          "name": "sender",
          "type": "address"
        },
        {
          "indexed": false,
          "internalType": "uint256",
          "name": "amount",
          "type": "uint256"
        }
      ],
      "name": "Deposit",
      "type": "event"
    },
    {
      "anonymous": false,
      "inputs": [
        {
          "indexed": false,
          "internalType": "string",
          "name": "txId",
          "type": "string"
        },
        {
          "indexed": false,
          "internalType": "enum MultiSig.Operation",
          "name": "opr",
          "type": "uint8"
        }
      ],
      "name": "Execute",
      "type": "event"
    },
    {
      "anonymous": false,
      "inputs": [
        {
          "indexed": false,
          "internalType": "address",
          "name": "owner",
          "type": "address"
        },
        {
          "indexed": false,
          "internalType": "string",
          "name": "txId",
          "type": "string"
        },
        {
          "indexed": false,
          "internalType": "enum MultiSig.Operation",
          "name": "opr",
          "type": "uint8"
        }
      ],
      "name": "Revoke",
      "type": "event"
    },
    {
      "anonymous": false,
      "inputs": [
        {
          "indexed": false,
          "internalType": "string",
          "name": "txId",
          "type": "string"
        },
        {
          "indexed": false,
          "internalType": "enum MultiSig.Operation",
          "name": "opr",
          "type": "uint8"
        }
      ],
      "name": "Submit",
      "type": "event"
    },
    {
      "inputs": [],
      "name": "Approver",
      "outputs": [
        {
          "internalType": "string",
          "name": "",
          "type": "string"
        }
      ],
      "stateMutability": "view",
      "type": "function"
    },
    {
      "inputs": [],
      "name": "Burner",
      "outputs": [
        {
          "internalType": "string",
          "name": "",
          "type": "string"
        }
      ],
      "stateMutability": "view",
      "type": "function"
    },
    {
      "inputs": [],
      "name": "Executer",
      "outputs": [
        {
          "internalType": "string",
          "name": "",
          "type": "string"
        }
      ],
      "stateMutability": "view",
      "type": "function"
    },
    {
      "inputs": [],
      "name": "Revoker",
      "outputs": [
        {
          "internalType": "string",
          "name": "",
          "type": "string"
        }
      ],
      "stateMutability": "view",
      "type": "function"
    },
    {
      "inputs": [],
      "name": "Submitter",
      "outputs": [
        {
          "internalType": "string",
          "name": "",
          "type": "string"
        }
      ],
      "stateMutability": "view",
      "type": "function"
    },
    {
      "inputs": [],
      "name": "SuperAdmin",
      "outputs": [
        {
          "internalType": "string",
          "name": "",
          "type": "string"
        }
      ],
      "stateMutability": "view",
      "type": "function"
    },
    {
      "inputs": [
        {
          "internalType": "string",
          "name": "txId",
          "type": "string"
        },
        {
          "internalType": "address",
          "name": "contractAddress",
          "type": "address"
        },
        {
          "internalType": "string",
          "name": "tokenId",
          "type": "string"
        }
      ],
      "name": "addContract",
      "outputs": [],
      "stateMutability": "nonpayable",
      "type": "function"
    },
    {
      "inputs": [
        {
          "internalType": "string",
          "name": "txId",
          "type": "string"
        },
        {
          "internalType": "address",
          "name": "account",
          "type": "address"
        },
        {
          "internalType": "uint256",
          "name": "newRequired",
          "type": "uint256"
        },
        {
          "internalType": "string",
          "name": "role",
          "type": "string"
        }
      ],
      "name": "addMember",
      "outputs": [],
      "stateMutability": "nonpayable",
      "type": "function"
    },
    {
      "inputs": [
        {
          "internalType": "string",
          "name": "_txId",
          "type": "string"
        }
      ],
      "name": "approve",
      "outputs": [],
      "stateMutability": "nonpayable",
      "type": "function"
    },
    {
      "inputs": [
        {
          "internalType": "string",
          "name": "",
          "type": "string"
        },
        {
          "internalType": "uint256",
          "name": "",
          "type": "uint256"
        }
      ],
      "name": "approved",
      "outputs": [
        {
          "internalType": "address",
          "name": "",
          "type": "address"
        }
      ],
      "stateMutability": "view",
      "type": "function"
    },
    {
      "inputs": [
        {
          "internalType": "string",
          "name": "txId",
          "type": "string"
        },
        {
          "internalType": "uint256",
          "name": "amount",
          "type": "uint256"
        },
        {
          "internalType": "string",
          "name": "tokenId",
          "type": "string"
        }
      ],
      "name": "burn",
      "outputs": [],
      "stateMutability": "nonpayable",
      "type": "function"
    },
    {
      "inputs": [],
      "name": "deposit",
      "outputs": [],
      "stateMutability": "payable",
      "type": "function"
    },
    {
      "inputs": [
        {
          "internalType": "string",
          "name": "_txId",
          "type": "string"
        }
      ],
      "name": "execute",
      "outputs": [],
      "stateMutability": "nonpayable",
      "type": "function"
    },
    {
      "inputs": [
        {
          "internalType": "address",
          "name": "",
          "type": "address"
        }
      ],
      "name": "isOwner",
      "outputs": [
        {
          "internalType": "bool",
          "name": "",
          "type": "bool"
        }
      ],
      "stateMutability": "view",
      "type": "function"
    },
    {
      "inputs": [
        {
          "internalType": "string",
          "name": "txId",
          "type": "string"
        }
      ],
      "name": "isTxApproved",
      "outputs": [
        {
          "internalType": "bool",
          "name": "",
          "type": "bool"
        }
      ],
      "stateMutability": "view",
      "type": "function"
    },
    {
      "inputs": [
        {
          "internalType": "string",
          "name": "txId",
          "type": "string"
        }
      ],
      "name": "isTxExecuted",
      "outputs": [
        {
          "internalType": "bool",
          "name": "",
          "type": "bool"
        }
      ],
      "stateMutability": "view",
      "type": "function"
    },
    {
      "inputs": [
        {
          "internalType": "string",
          "name": "txId",
          "type": "string"
        }
      ],
      "name": "isTxSubmitted",
      "outputs": [
        {
          "internalType": "bool",
          "name": "",
          "type": "bool"
        }
      ],
      "stateMutability": "view",
      "type": "function"
    },
    {
      "inputs": [
        {
          "internalType": "string",
          "name": "txId",
          "type": "string"
        },
        {
          "internalType": "address",
          "name": "to",
          "type": "address"
        },
        {
          "internalType": "uint256",
          "name": "amount",
          "type": "uint256"
        },
        {
          "internalType": "string",
          "name": "tokenId",
          "type": "string"
        }
      ],
      "name": "mint",
      "outputs": [],
      "stateMutability": "nonpayable",
      "type": "function"
    },
    {
      "inputs": [
        {
          "internalType": "string",
          "name": "txId",
          "type": "string"
        },
        {
          "internalType": "string",
          "name": "tokenId",
          "type": "string"
        }
      ],
      "name": "removeContract",
      "outputs": [],
      "stateMutability": "nonpayable",
      "type": "function"
    },
    {
      "inputs": [
        {
          "internalType": "string",
          "name": "txId",
          "type": "string"
        },
        {
          "internalType": "address",
          "name": "account",
          "type": "address"
        },
        {
          "internalType": "uint256",
          "name": "newRequired",
          "type": "uint256"
        },
        {
          "internalType": "string",
          "name": "empty",
          "type": "string"
        }
      ],
      "name": "removeMember",
      "outputs": [],
      "stateMutability": "nonpayable",
      "type": "function"
    },
    {
      "inputs": [],
      "name": "required",
      "outputs": [
        {
          "internalType": "uint256",
          "name": "",
          "type": "uint256"
        }
      ],
      "stateMutability": "view",
      "type": "function"
    },
    {
      "inputs": [
        {
          "internalType": "string",
          "name": "_txId",
          "type": "string"
        }
      ],
      "name": "revoke",
      "outputs": [],
      "stateMutability": "nonpayable",
      "type": "function"
    },
    {
      "inputs": [
        {
          "internalType": "address",
          "name": "",
          "type": "address"
        }
      ],
      "name": "roles",
      "outputs": [
        {
          "internalType": "string",
          "name": "",
          "type": "string"
        }
      ],
      "stateMutability": "view",
      "type": "function"
    },
    {
      "inputs": [
        {
          "internalType": "string",
          "name": "txId",
          "type": "string"
        },
        {
          "internalType": "string",
          "name": "tokenId",
          "type": "string"
        },
        {
          "internalType": "address",
          "name": "newOwner",
          "type": "address"
        }
      ],
      "name": "transferOwnership",
      "outputs": [],
      "stateMutability": "nonpayable",
      "type": "function"
    },
    {
      "inputs": [
        {
          "internalType": "address",
          "name": "easyReturnAddress",
          "type": "address"
        }
      ],
      "name": "withdraw",
      "outputs": [],
      "stateMutability": "nonpayable",
      "type": "function"
    },
    {
      "stateMutability": "payable",
      "type": "receive"
    }
  ],
  "bytecode": "0x60806040526040518060400160405280600181526020017f3000000000000000000000000000000000000000000000000000000000000000815250600090816200004a9190620006ee565b506040518060400160405280600181526020017f310000000000000000000000000000000000000000000000000000000000000081525060019081620000919190620006ee565b506040518060400160405280600181526020017f320000000000000000000000000000000000000000000000000000000000000081525060029081620000d89190620006ee565b506040518060400160405280600181526020017f3300000000000000000000000000000000000000000000000000000000000000815250600390816200011f9190620006ee565b506040518060400160405280600181526020017f340000000000000000000000000000000000000000000000000000000000000081525060049081620001669190620006ee565b506040518060400160405280600181526020017f350000000000000000000000000000000000000000000000000000000000000081525060059081620001ad9190620006ee565b50348015620001bb57600080fd5b506040516200619b3803806200619b8339818101604052810190620001e19190620009c5565b600082511162000228576040517f08c379a00000000000000000000000000000000000000000000000000000000081526004016200021f9062000a8c565b60405180910390fd5b6000811180156200023a575081518111155b6200027c576040517f08c379a0000000000000000000000000000000000000000000000000000000008152600401620002739062000b24565b60405180910390fd5b60005b825181101562000464576000838281518110620002a157620002a062000b46565b5b60200260200101519050600073ffffffffffffffffffffffffffffffffffffffff168173ffffffffffffffffffffffffffffffffffffffff16036200031d576040517f08c379a0000000000000000000000000000000000000000000000000000000008152600401620003149062000bc5565b60405180910390fd5b600860008273ffffffffffffffffffffffffffffffffffffffff1673ffffffffffffffffffffffffffffffffffffffff16815260200190815260200160002060009054906101000a900460ff1615620003ad576040517f08c379a0000000000000000000000000000000000000000000000000000000008152600401620003a49062000c37565b60405180910390fd5b6001600860008373ffffffffffffffffffffffffffffffffffffffff1673ffffffffffffffffffffffffffffffffffffffff16815260200190815260200160002060006101000a81548160ff0219169083151502179055506000600760008373ffffffffffffffffffffffffffffffffffffffff1673ffffffffffffffffffffffffffffffffffffffff168152602001908152602001600020908162000454919062000c86565b505080806001019150506200027f565b5080600681905550505062000d87565b600081519050919050565b7f4e487b7100000000000000000000000000000000000000000000000000000000600052604160045260246000fd5b7f4e487b7100000000000000000000000000000000000000000000000000000000600052602260045260246000fd5b60006002820490506001821680620004f657607f821691505b6020821081036200050c576200050b620004ae565b5b50919050565b60008190508160005260206000209050919050565b60006020601f8301049050919050565b600082821b905092915050565b600060088302620005767fffffffffffffffffffffffffffffffffffffffffffffffffffffffffffffffff8262000537565b62000582868362000537565b95508019841693508086168417925050509392505050565b6000819050919050565b6000819050919050565b6000620005cf620005c9620005c3846200059a565b620005a4565b6200059a565b9050919050565b6000819050919050565b620005eb83620005ae565b62000603620005fa82620005d6565b84845462000544565b825550505050565b600090565b6200061a6200060b565b62000627818484620005e0565b505050565b5b818110156200064f576200064360008262000610565b6001810190506200062d565b5050565b601f8211156200069e57620006688162000512565b620006738462000527565b8101602085101562000683578190505b6200069b620006928562000527565b8301826200062c565b50505b505050565b600082821c905092915050565b6000620006c360001984600802620006a3565b1980831691505092915050565b6000620006de8383620006b0565b9150826002028217905092915050565b620006f98262000474565b67ffffffffffffffff8111156200071557620007146200047f565b5b620007218254620004dd565b6200072e82828562000653565b600060209050601f83116001811462000766576000841562000751578287015190505b6200075d8582620006d0565b865550620007cd565b601f198416620007768662000512565b60005b82811015620007a05784890151825560018201915060208501945060208101905062000779565b86831015620007c05784890151620007bc601f891682620006b0565b8355505b6001600288020188555050505b505050505050565b6000604051905090565b600080fd5b600080fd5b600080fd5b6000601f19601f8301169050919050565b6200080a82620007ee565b810181811067ffffffffffffffff821117156200082c576200082b6200047f565b5b80604052505050565b600062000841620007d5565b90506200084f8282620007ff565b919050565b600067ffffffffffffffff8211156200087257620008716200047f565b5b602082029050602081019050919050565b600080fd5b600073ffffffffffffffffffffffffffffffffffffffff82169050919050565b6000620008b58262000888565b9050919050565b620008c781620008a8565b8114620008d357600080fd5b50565b600081519050620008e781620008bc565b92915050565b600062000904620008fe8462000854565b62000835565b905080838252602082019050602084028301858111156200092a576200092962000883565b5b835b81811015620009575780620009428882620008d6565b8452602084019350506020810190506200092c565b5050509392505050565b600082601f830112620009795762000978620007e9565b5b81516200098b848260208601620008ed565b91505092915050565b6200099f816200059a565b8114620009ab57600080fd5b50565b600081519050620009bf8162000994565b92915050565b60008060408385031215620009df57620009de620007df565b5b600083015167ffffffffffffffff81111562000a0057620009ff620007e4565b5b62000a0e8582860162000961565b925050602062000a2185828601620009ae565b9150509250929050565b600082825260208201905092915050565b7f6f776e6572287329207265717569726564000000000000000000000000000000600082015250565b600062000a7460118362000a2b565b915062000a818262000a3c565b602082019050919050565b6000602082019050818103600083015262000aa78162000a65565b9050919050565b7f696e76616c6964207265717569726564206e756d626572206f66206f776e657260008201527f7300000000000000000000000000000000000000000000000000000000000000602082015250565b600062000b0c60218362000a2b565b915062000b198262000aae565b604082019050919050565b6000602082019050818103600083015262000b3f8162000afd565b9050919050565b7f4e487b7100000000000000000000000000000000000000000000000000000000600052603260045260246000fd5b7f696e76616c6964206f776e657200000000000000000000000000000000000000600082015250565b600062000bad600d8362000a2b565b915062000bba8262000b75565b602082019050919050565b6000602082019050818103600083015262000be08162000b9e565b9050919050565b7f6f776e6572206973206e6f7420756e6971756500000000000000000000000000600082015250565b600062000c1f60138362000a2b565b915062000c2c8262000be7565b602082019050919050565b6000602082019050818103600083015262000c528162000c10565b9050919050565b60008154905062000c6a81620004dd565b9050919050565b60008190508160005260206000209050919050565b81810362000c9657505062000d85565b62000ca18262000c59565b67ffffffffffffffff81111562000cbd5762000cbc6200047f565b5b62000cc98254620004dd565b62000cd682828562000653565b6000601f83116001811462000d0a576000841562000cf5578287015490505b62000d018582620006d0565b86555062000d7e565b601f19841662000d1a8762000c71565b965062000d278662000512565b60005b8281101562000d515784890154825560018201915060018501945060208101905062000d2a565b8683101562000d71578489015462000d6d601f891682620006b0565b8355505b6001600288020188555050505b5050505050505b565b6154048062000d976000396000f3fe60806040526004361061016a5760003560e01c8063a5dfdcea116100d1578063cb49c2091161008a578063da428d9111610064578063da428d9114610584578063dc2ad210146105af578063dc8452cd146105d8578063ecedaf4c14610603576101bf565b8063cb49c20914610514578063d0e30db01461053d578063d5b5fd0414610547576101bf565b8063a5dfdcea14610406578063b372e8a014610443578063b5afc3291461046e578063b67b716314610497578063bd590d7e146104c0578063c268ab8f146104e9576101bf565b806351cff8d91161012357806351cff8d9146102e657806365b2a8631461030f57806367a345b3146103385780637d6929e0146103635780637f1dea001461038c57806399374642146103c9576101bf565b806301498b5f146101c45780630b87305714610201578063122862f91461022c57806313a768e1146102555780632f54bf6e1461027e57806344c98531146102bb576101bf565b366101bf573373ffffffffffffffffffffffffffffffffffffffff167fe1fffcc4923d04b559f4d29a8bfc6cda04eb5b0d3c460751c2402c5c5cc9109c346040516101b59190613efb565b60405180910390a2005b600080fd5b3480156101d057600080fd5b506101eb60048036038101906101e69190613f8f565b61062c565b6040516101f89190613ff7565b60405180910390f35b34801561020d57600080fd5b5061021661070b565b60405161022391906140a2565b60405180910390f35b34801561023857600080fd5b50610253600480360381019061024e9190614122565b610799565b005b34801561026157600080fd5b5061027c600480360381019061027791906141e3565b6109fe565b005b34801561028a57600080fd5b506102a560048036038101906102a09190614278565b610dc4565b6040516102b29190613ff7565b60405180910390f35b3480156102c757600080fd5b506102d0610de4565b6040516102dd91906140a2565b60405180910390f35b3480156102f257600080fd5b5061030d60048036038101906103089190614278565b610e72565b005b34801561031b57600080fd5b5061033660048036038101906103319190613f8f565b610ebc565b005b34801561034457600080fd5b5061034d611390565b60405161035a91906140a2565b60405180910390f35b34801561036f57600080fd5b5061038a600480360381019061038591906142a5565b61141e565b005b34801561039857600080fd5b506103b360048036038101906103ae919061446a565b611712565b6040516103c091906144d5565b60405180910390f35b3480156103d557600080fd5b506103f060048036038101906103eb9190614278565b611776565b6040516103fd91906140a2565b60405180910390f35b34801561041257600080fd5b5061042d60048036038101906104289190613f8f565b611816565b60405161043a9190613ff7565b60405180910390f35b34801561044f57600080fd5b50610458611851565b60405161046591906140a2565b60405180910390f35b34801561047a57600080fd5b50610495600480360381019061049091906144f0565b6118df565b005b3480156104a357600080fd5b506104be60048036038101906104b99190613f8f565b611a91565b005b3480156104cc57600080fd5b506104e760048036038101906104e29190613f8f565b612127565b005b3480156104f557600080fd5b506104fe612d1c565b60405161050b91906140a2565b60405180910390f35b34801561052057600080fd5b5061053b600480360381019061053691906144f0565b612daa565b005b61054561300f565b005b34801561055357600080fd5b5061056e60048036038101906105699190613f8f565b61305f565b60405161057b9190613ff7565b60405180910390f35b34801561059057600080fd5b506105996130dc565b6040516105a691906140a2565b60405180910390f35b3480156105bb57600080fd5b506105d660048036038101906105d191906144f0565b61316a565b005b3480156105e457600080fd5b506105ed613892565b6040516105fa9190613efb565b60405180910390f35b34801561060f57600080fd5b5061062a60048036038101906106259190614597565b613898565b005b6000806000905060005b600c8585604051610648929190614648565b908152602001604051809103902080549050811015610700573373ffffffffffffffffffffffffffffffffffffffff16600c868660405161068a929190614648565b908152602001604051809103902082815481106106aa576106a9614661565b5b9060005260206000200160009054906101000a900473ffffffffffffffffffffffffffffffffffffffff1673ffffffffffffffffffffffffffffffffffffffff16036106f557600191505b806001019050610636565b508091505092915050565b60018054610718906146bf565b80601f0160208091040260200160405190810160405280929190818152602001828054610744906146bf565b80156107915780601f1061076657610100808354040283529160200191610791565b820191906000526020600020905b81548152906001019060200180831161077457829003601f168201915b505050505081565b8282600073ffffffffffffffffffffffffffffffffffffffff16600983836040516107c5929190614648565b908152602001604051809103902060009054906101000a900473ffffffffffffffffffffffffffffffffffffffff1673ffffffffffffffffffffffffffffffffffffffff160361084a576040517f08c379a00000000000000000000000000000000000000000000000000000000081526004016108419061473c565b60405180910390fd5b6109a5600760003373ffffffffffffffffffffffffffffffffffffffff1673ffffffffffffffffffffffffffffffffffffffff1681526020019081526020016000208054610897906146bf565b80601f01602080910402602001604051908101604052809291908181526020018280546108c3906146bf565b80156109105780601f106108e557610100808354040283529160200191610910565b820191906000526020600020905b8154815290600101906020018083116108f357829003601f168201915b505050505060008054610922906146bf565b80601f016020809104026020016040519081016040528092919081815260200182805461094e906146bf565b801561099b5780601f106109705761010080835404028352916020019161099b565b820191906000526020600020905b81548152906001019060200180831161097e57829003601f168201915b5050505050613b3c565b6109e4576040517f08c379a00000000000000000000000000000000000000000000000000000000081526004016109db906147a8565b60405180910390fd5b6109f5878760028660008a8a613b95565b50505050505050565b8181600073ffffffffffffffffffffffffffffffffffffffff1660098383604051610a2a929190614648565b908152602001604051809103902060009054906101000a900473ffffffffffffffffffffffffffffffffffffffff1673ffffffffffffffffffffffffffffffffffffffff1603610aaf576040517f08c379a0000000000000000000000000000000000000000000000000000000008152600401610aa69061473c565b60405180910390fd5b610c0a600760003373ffffffffffffffffffffffffffffffffffffffff1673ffffffffffffffffffffffffffffffffffffffff1681526020019081526020016000208054610afc906146bf565b80601f0160208091040260200160405190810160405280929190818152602001828054610b28906146bf565b8015610b755780601f10610b4a57610100808354040283529160200191610b75565b820191906000526020600020905b815481529060010190602001808311610b5857829003601f168201915b505050505060008054610b87906146bf565b80601f0160208091040260200160405190810160405280929190818152602001828054610bb3906146bf565b8015610c005780601f10610bd557610100808354040283529160200191610c00565b820191906000526020600020905b815481529060010190602001808311610be357829003601f168201915b5050505050613b3c565b80610d6c5750610d6b600760003373ffffffffffffffffffffffffffffffffffffffff1673ffffffffffffffffffffffffffffffffffffffff1681526020019081526020016000208054610c5d906146bf565b80601f0160208091040260200160405190810160405280929190818152602001828054610c89906146bf565b8015610cd65780601f10610cab57610100808354040283529160200191610cd6565b820191906000526020600020905b815481529060010190602001808311610cb957829003601f168201915b505050505060048054610ce8906146bf565b80601f0160208091040260200160405190810160405280929190818152602001828054610d14906146bf565b8015610d615780601f10610d3657610100808354040283529160200191610d61565b820191906000526020600020905b815481529060010190602001808311610d4457829003601f168201915b5050505050613b3c565b5b610dab576040517f08c379a0000000000000000000000000000000000000000000000000000000008152600401610da290614814565b60405180910390fd5b610dbb8787600130898989613b95565b50505050505050565b60086020528060005260406000206000915054906101000a900460ff1681565b60048054610df1906146bf565b80601f0160208091040260200160405190810160405280929190818152602001828054610e1d906146bf565b8015610e6a5780601f10610e3f57610100808354040283529160200191610e6a565b820191906000526020600020905b815481529060010190602001808311610e4d57829003601f168201915b505050505081565b8073ffffffffffffffffffffffffffffffffffffffff166108fc479081150290604051600060405180830381858888f19350505050158015610eb8573d6000803e3d6000fd5b5050565b611017600760003373ffffffffffffffffffffffffffffffffffffffff1673ffffffffffffffffffffffffffffffffffffffff1681526020019081526020016000208054610f09906146bf565b80601f0160208091040260200160405190810160405280929190818152602001828054610f35906146bf565b8015610f825780601f10610f5757610100808354040283529160200191610f82565b820191906000526020600020905b815481529060010190602001808311610f6557829003601f168201915b505050505060008054610f94906146bf565b80601f0160208091040260200160405190810160405280929190818152602001828054610fc0906146bf565b801561100d5780601f10610fe25761010080835404028352916020019161100d565b820191906000526020600020905b815481529060010190602001808311610ff057829003601f168201915b5050505050613b3c565b806111795750611178600760003373ffffffffffffffffffffffffffffffffffffffff1673ffffffffffffffffffffffffffffffffffffffff168152602001908152602001600020805461106a906146bf565b80601f0160208091040260200160405190810160405280929190818152602001828054611096906146bf565b80156110e35780601f106110b8576101008083540402835291602001916110e3565b820191906000526020600020905b8154815290600101906020018083116110c657829003601f168201915b5050505050600580546110f5906146bf565b80601f0160208091040260200160405190810160405280929190818152602001828054611121906146bf565b801561116e5780601f106111435761010080835404028352916020019161116e565b820191906000526020600020905b81548152906001019060200180831161115157829003601f168201915b5050505050613b3c565b5b6111b8576040517f08c379a00000000000000000000000000000000000000000000000000000000081526004016111af90614880565b60405180910390fd5b8181600073ffffffffffffffffffffffffffffffffffffffff16600b83836040516111e4929190614648565b908152602001604051809103902060000160019054906101000a900473ffffffffffffffffffffffffffffffffffffffff1673ffffffffffffffffffffffffffffffffffffffff160361126c576040517f08c379a0000000000000000000000000000000000000000000000000000000008152600401611263906148ec565b60405180910390fd5b8383600b8282604051611280929190614648565b908152602001604051809103902060030160009054906101000a900460ff16156112df576040517f08c379a00000000000000000000000000000000000000000000000000000000081526004016112d690614958565b60405180910390fd5b6001600b87876040516112f3929190614648565b908152602001604051809103902060030160016101000a81548160ff0219169083151502179055507fd25ace5c6bf7f36543cc18d744b483308e5a80b7dc414f29a792074cef54ece5338787600b8a8a604051611351929190614648565b908152602001604051809103902060000160009054906101000a900460ff166040516113809493929190614a1c565b60405180910390a1505050505050565b6005805461139d906146bf565b80601f01602080910402602001604051908101604052809291908181526020018280546113c9906146bf565b80156114165780601f106113eb57610100808354040283529160200191611416565b820191906000526020600020905b8154815290600101906020018083116113f957829003601f168201915b505050505081565b828282600a60008473ffffffffffffffffffffffffffffffffffffffff1673ffffffffffffffffffffffffffffffffffffffff16815260200190815260200160002060009054906101000a900460ff16156114ae576040517f08c379a00000000000000000000000000000000000000000000000000000000081526004016114a590614aa8565b60405180910390fd5b600073ffffffffffffffffffffffffffffffffffffffff16600983836040516114d8929190614648565b908152602001604051809103902060009054906101000a900473ffffffffffffffffffffffffffffffffffffffff1673ffffffffffffffffffffffffffffffffffffffff161461155d576040517f08c379a000000000000000000000000000000000000000000000000000000000815260040161155490614b14565b60405180910390fd5b6116b8600760003373ffffffffffffffffffffffffffffffffffffffff1673ffffffffffffffffffffffffffffffffffffffff16815260200190815260200160002080546115aa906146bf565b80601f01602080910402602001604051908101604052809291908181526020018280546115d6906146bf565b80156116235780601f106115f857610100808354040283529160200191611623565b820191906000526020600020905b81548152906001019060200180831161160657829003601f168201915b505050505060008054611635906146bf565b80601f0160208091040260200160405190810160405280929190818152602001828054611661906146bf565b80156116ae5780601f10611683576101008083540402835291602001916116ae565b820191906000526020600020905b81548152906001019060200180831161169157829003601f168201915b5050505050613b3c565b6116f7576040517f08c379a00000000000000000000000000000000000000000000000000000000081526004016116ee906147a8565b60405180910390fd5b611708888860038960008a8a613b95565b5050505050505050565b600c82805160208101820180518482526020830160208501208183528095505050505050818154811061174457600080fd5b906000526020600020016000915091509054906101000a900473ffffffffffffffffffffffffffffffffffffffff1681565b60076020528060005260406000206000915090508054611795906146bf565b80601f01602080910402602001604051908101604052809291908181526020018280546117c1906146bf565b801561180e5780601f106117e35761010080835404028352916020019161180e565b820191906000526020600020905b8154815290600101906020018083116117f157829003601f168201915b505050505081565b6000600b838360405161182a929190614648565b908152602001604051809103902060030160009054906101000a900460ff16905092915050565b6000805461185e906146bf565b80601f016020809104026020016040519081016040528092919081815260200182805461188a906146bf565b80156118d75780601f106118ac576101008083540402835291602001916118d7565b820191906000526020600020905b8154815290600101906020018083116118ba57829003601f168201915b505050505081565b611a3a600760003373ffffffffffffffffffffffffffffffffffffffff1673ffffffffffffffffffffffffffffffffffffffff168152602001908152602001600020805461192c906146bf565b80601f0160208091040260200160405190810160405280929190818152602001828054611958906146bf565b80156119a55780601f1061197a576101008083540402835291602001916119a5565b820191906000526020600020905b81548152906001019060200180831161198857829003601f168201915b5050505050600080546119b7906146bf565b80601f01602080910402602001604051908101604052809291908181526020018280546119e3906146bf565b8015611a305780601f10611a0557610100808354040283529160200191611a30565b820191906000526020600020905b815481529060010190602001808311611a1357829003601f168201915b5050505050613b3c565b611a79576040517f08c379a0000000000000000000000000000000000000000000000000000000008152600401611a70906147a8565b60405180910390fd5b611a898686600687878787613b95565b505050505050565b611bec600760003373ffffffffffffffffffffffffffffffffffffffff1673ffffffffffffffffffffffffffffffffffffffff1681526020019081526020016000208054611ade906146bf565b80601f0160208091040260200160405190810160405280929190818152602001828054611b0a906146bf565b8015611b575780601f10611b2c57610100808354040283529160200191611b57565b820191906000526020600020905b815481529060010190602001808311611b3a57829003601f168201915b505050505060008054611b69906146bf565b80601f0160208091040260200160405190810160405280929190818152602001828054611b95906146bf565b8015611be25780601f10611bb757610100808354040283529160200191611be2565b820191906000526020600020905b815481529060010190602001808311611bc557829003601f168201915b5050505050613b3c565b80611d4e5750611d4d600760003373ffffffffffffffffffffffffffffffffffffffff1673ffffffffffffffffffffffffffffffffffffffff1681526020019081526020016000208054611c3f906146bf565b80601f0160208091040260200160405190810160405280929190818152602001828054611c6b906146bf565b8015611cb85780601f10611c8d57610100808354040283529160200191611cb8565b820191906000526020600020905b815481529060010190602001808311611c9b57829003601f168201915b505050505060028054611cca906146bf565b80601f0160208091040260200160405190810160405280929190818152602001828054611cf6906146bf565b8015611d435780601f10611d1857610100808354040283529160200191611d43565b820191906000526020600020905b815481529060010190602001808311611d2657829003601f168201915b5050505050613b3c565b5b611d8d576040517f08c379a0000000000000000000000000000000000000000000000000000000008152600401611d8490614b80565b60405180910390fd5b8181600073ffffffffffffffffffffffffffffffffffffffff16600b8383604051611db9929190614648565b908152602001604051809103902060000160019054906101000a900473ffffffffffffffffffffffffffffffffffffffff1673ffffffffffffffffffffffffffffffffffffffff1603611e41576040517f08c379a0000000000000000000000000000000000000000000000000000000008152600401611e38906148ec565b60405180910390fd5b838360005b600c8383604051611e58929190614648565b908152602001604051809103902080549050811015611f4657600c8383604051611e83929190614648565b90815260200160405180910390208181548110611ea357611ea2614661565b5b9060005260206000200160009054906101000a900473ffffffffffffffffffffffffffffffffffffffff1673ffffffffffffffffffffffffffffffffffffffff163373ffffffffffffffffffffffffffffffffffffffff1603611f3b576040517f08c379a0000000000000000000000000000000000000000000000000000000008152600401611f3290614bec565b60405180910390fd5b806001019050611e46565b508585600b8282604051611f5b929190614648565b908152602001604051809103902060030160009054906101000a900460ff1615611fba576040517f08c379a0000000000000000000000000000000000000000000000000000000008152600401611fb190614958565b60405180910390fd5b8787600b8282604051611fce929190614648565b908152602001604051809103902060030160019054906101000a900460ff161561202d576040517f08c379a000000000000000000000000000000000000000000000000000000000815260040161202490614c58565b60405180910390fd5b600c8a8a60405161203f929190614648565b9081526020016040518091039020339080600181540180825580915050600190039060005260206000200160009091909190916101000a81548173ffffffffffffffffffffffffffffffffffffffff021916908373ffffffffffffffffffffffffffffffffffffffff1602179055507fb2c69db17e9cf49f7ffb770dbf82a7819f179e10433f9c53eb7ba95f336ccaca338b8b600b8e8e6040516120e4929190614648565b908152602001604051809103902060000160009054906101000a900460ff166040516121139493929190614a1c565b60405180910390a150505050505050505050565b612282600760003373ffffffffffffffffffffffffffffffffffffffff1673ffffffffffffffffffffffffffffffffffffffff1681526020019081526020016000208054612174906146bf565b80601f01602080910402602001604051908101604052809291908181526020018280546121a0906146bf565b80156121ed5780601f106121c2576101008083540402835291602001916121ed565b820191906000526020600020905b8154815290600101906020018083116121d057829003601f168201915b5050505050600080546121ff906146bf565b80601f016020809104026020016040519081016040528092919081815260200182805461222b906146bf565b80156122785780601f1061224d57610100808354040283529160200191612278565b820191906000526020600020905b81548152906001019060200180831161225b57829003601f168201915b5050505050613b3c565b806123e457506123e3600760003373ffffffffffffffffffffffffffffffffffffffff1673ffffffffffffffffffffffffffffffffffffffff16815260200190815260200160002080546122d5906146bf565b80601f0160208091040260200160405190810160405280929190818152602001828054612301906146bf565b801561234e5780601f106123235761010080835404028352916020019161234e565b820191906000526020600020905b81548152906001019060200180831161233157829003601f168201915b505050505060038054612360906146bf565b80601f016020809104026020016040519081016040528092919081815260200182805461238c906146bf565b80156123d95780601f106123ae576101008083540402835291602001916123d9565b820191906000526020600020905b8154815290600101906020018083116123bc57829003601f168201915b5050505050613b3c565b5b612423576040517f08c379a000000000000000000000000000000000000000000000000000000000815260040161241a90614cc4565b60405180910390fd5b8181600073ffffffffffffffffffffffffffffffffffffffff16600b838360405161244f929190614648565b908152602001604051809103902060000160019054906101000a900473ffffffffffffffffffffffffffffffffffffffff1673ffffffffffffffffffffffffffffffffffffffff16036124d7576040517f08c379a00000000000000000000000000000000000000000000000000000000081526004016124ce906148ec565b60405180910390fd5b8383600b82826040516124eb929190614648565b908152602001604051809103902060030160009054906101000a900460ff161561254a576040517f08c379a000000000000000000000000000000000000000000000000000000000815260040161254190614958565b60405180910390fd5b8585600b828260405161255e929190614648565b908152602001604051809103902060030160019054906101000a900460ff16156125bd576040517f08c379a00000000000000000000000000000000000000000000000000000000081526004016125b490614c58565b60405180910390fd5b6006546125ca8989613eb4565b101561260b576040517f08c379a000000000000000000000000000000000000000000000000000000000815260040161260290614d30565b60405180910390fd5b6000600b898960405161261f929190614648565b9081526020016040518091039020905060006006811115612643576126426149a5565b5b8160000160009054906101000a900460ff166006811115612667576126666149a5565b5b036127495760006009826002016040516126819190614de8565b908152602001604051809103902060009054906101000a900473ffffffffffffffffffffffffffffffffffffffff1690508073ffffffffffffffffffffffffffffffffffffffff166340c10f198360000160019054906101000a900473ffffffffffffffffffffffffffffffffffffffff1684600101546040518363ffffffff1660e01b8152600401612715929190614dff565b600060405180830381600087803b15801561272f57600080fd5b505af1158015612743573d6000803e3d6000fd5b50505050505b6001600681111561275d5761275c6149a5565b5b8160000160009054906101000a900460ff166006811115612781576127806149a5565b5b0361283d57600060098260020160405161279b9190614de8565b908152602001604051809103902060009054906101000a900473ffffffffffffffffffffffffffffffffffffffff1690508073ffffffffffffffffffffffffffffffffffffffff166342966c6883600101546040518263ffffffff1660e01b81526004016128099190613efb565b600060405180830381600087803b15801561282357600080fd5b505af1158015612837573d6000803e3d6000fd5b50505050505b60026006811115612851576128506149a5565b5b8160000160009054906101000a900460ff166006811115612875576128746149a5565b5b0361295157600060098260020160405161288f9190614de8565b908152602001604051809103902060009054906101000a900473ffffffffffffffffffffffffffffffffffffffff1690508073ffffffffffffffffffffffffffffffffffffffff1663f2fde38b8360000160019054906101000a900473ffffffffffffffffffffffffffffffffffffffff166040518263ffffffff1660e01b815260040161291d91906144d5565b600060405180830381600087803b15801561293757600080fd5b505af115801561294b573d6000803e3d6000fd5b50505050505b60036006811115612965576129646149a5565b5b8160000160009054906101000a900460ff166006811115612989576129886149a5565b5b03612a13578060000160019054906101000a900473ffffffffffffffffffffffffffffffffffffffff166009826002016040516129c69190614de8565b908152602001604051809103902060006101000a81548173ffffffffffffffffffffffffffffffffffffffff021916908373ffffffffffffffffffffffffffffffffffffffff1602179055505b60046006811115612a2757612a266149a5565b5b8160000160009054906101000a900460ff166006811115612a4b57612a4a6149a5565b5b03612a9557600981600201604051612a639190614de8565b908152602001604051809103902060006101000a81549073ffffffffffffffffffffffffffffffffffffffff02191690555b60056006811115612aa957612aa86149a5565b5b8160000160009054906101000a900460ff166006811115612acd57612acc6149a5565b5b03612bce576001600860008360000160019054906101000a900473ffffffffffffffffffffffffffffffffffffffff1673ffffffffffffffffffffffffffffffffffffffff1673ffffffffffffffffffffffffffffffffffffffff16815260200190815260200160002060006101000a81548160ff021916908315150217905550806001015460068190555080600201600760008360000160019054906101000a900473ffffffffffffffffffffffffffffffffffffffff1673ffffffffffffffffffffffffffffffffffffffff1673ffffffffffffffffffffffffffffffffffffffff1681526020019081526020016000209081612bcc9190614fea565b505b600680811115612be157612be06149a5565b5b8160000160009054906101000a900460ff166006811115612c0557612c046149a5565b5b03612c8957600860008260000160019054906101000a900473ffffffffffffffffffffffffffffffffffffffff1673ffffffffffffffffffffffffffffffffffffffff1673ffffffffffffffffffffffffffffffffffffffff16815260200190815260200160002060006101000a81549060ff021916905580600101546006819055505b60018160030160006101000a81548160ff0219169083151502179055507fe5aa04320b70bf8f9794060d0d90497ed6d02079a18ff89a6bceef6f2c25aafa8989600b8c8c604051612cdb929190614648565b908152602001604051809103902060000160009054906101000a900460ff16604051612d09939291906150d2565b60405180910390a1505050505050505050565b60028054612d29906146bf565b80601f0160208091040260200160405190810160405280929190818152602001828054612d55906146bf565b8015612da25780601f10612d7757610100808354040283529160200191612da2565b820191906000526020600020905b815481529060010190602001808311612d8557829003601f168201915b505050505081565b8181600073ffffffffffffffffffffffffffffffffffffffff1660098383604051612dd6929190614648565b908152602001604051809103902060009054906101000a900473ffffffffffffffffffffffffffffffffffffffff1673ffffffffffffffffffffffffffffffffffffffff1603612e5b576040517f08c379a0000000000000000000000000000000000000000000000000000000008152600401612e529061473c565b60405180910390fd5b612fb6600760003373ffffffffffffffffffffffffffffffffffffffff1673ffffffffffffffffffffffffffffffffffffffff1681526020019081526020016000208054612ea8906146bf565b80601f0160208091040260200160405190810160405280929190818152602001828054612ed4906146bf565b8015612f215780601f10612ef657610100808354040283529160200191612f21565b820191906000526020600020905b815481529060010190602001808311612f0457829003601f168201915b505050505060018054612f33906146bf565b80601f0160208091040260200160405190810160405280929190818152602001828054612f5f906146bf565b8015612fac5780601f10612f8157610100808354040283529160200191612fac565b820191906000526020600020905b815481529060010190602001808311612f8f57829003601f168201915b5050505050613b3c565b612ff5576040517f08c379a0000000000000000000000000000000000000000000000000000000008152600401612fec90615150565b60405180910390fd5b6130058888600089898989613b95565b5050505050505050565b3373ffffffffffffffffffffffffffffffffffffffff167fe1fffcc4923d04b559f4d29a8bfc6cda04eb5b0d3c460751c2402c5c5cc9109c346040516130559190613efb565b60405180910390a2565b60008073ffffffffffffffffffffffffffffffffffffffff16600b848460405161308a929190614648565b908152602001604051809103902060000160019054906101000a900473ffffffffffffffffffffffffffffffffffffffff1673ffffffffffffffffffffffffffffffffffffffff161415905092915050565b600380546130e9906146bf565b80601f0160208091040260200160405190810160405280929190818152602001828054613115906146bf565b80156131625780601f1061313757610100808354040283529160200191613162565b820191906000526020600020905b81548152906001019060200180831161314557829003601f168201915b505050505081565b818161324482828080601f016020809104026020016040519081016040528093929190818152602001838380828437600081840152601f19601f82011690508083019250505050505050600080546131c1906146bf565b80601f01602080910402602001604051908101604052809291908181526020018280546131ed906146bf565b801561323a5780601f1061320f5761010080835404028352916020019161323a565b820191906000526020600020905b81548152906001019060200180831161321d57829003601f168201915b5050505050613b3c565b80613323575061332282828080601f016020809104026020016040519081016040528093929190818152602001838380828437600081840152601f19601f820116905080830192505050505050506001805461329f906146bf565b80601f01602080910402602001604051908101604052809291908181526020018280546132cb906146bf565b80156133185780601f106132ed57610100808354040283529160200191613318565b820191906000526020600020905b8154815290600101906020018083116132fb57829003601f168201915b5050505050613b3c565b5b80613402575061340182828080601f016020809104026020016040519081016040528093929190818152602001838380828437600081840152601f19601f820116905080830192505050505050506002805461337e906146bf565b80601f01602080910402602001604051908101604052809291908181526020018280546133aa906146bf565b80156133f75780601f106133cc576101008083540402835291602001916133f7565b820191906000526020600020905b8154815290600101906020018083116133da57829003601f168201915b5050505050613b3c565b5b806134e157506134e082828080601f016020809104026020016040519081016040528093929190818152602001838380828437600081840152601f19601f820116905080830192505050505050506003805461345d906146bf565b80601f0160208091040260200160405190810160405280929190818152602001828054613489906146bf565b80156134d65780601f106134ab576101008083540402835291602001916134d6565b820191906000526020600020905b8154815290600101906020018083116134b957829003601f168201915b5050505050613b3c565b5b806135c057506135bf82828080601f016020809104026020016040519081016040528093929190818152602001838380828437600081840152601f19601f820116905080830192505050505050506004805461353c906146bf565b80601f0160208091040260200160405190810160405280929190818152602001828054613568906146bf565b80156135b55780601f1061358a576101008083540402835291602001916135b5565b820191906000526020600020905b81548152906001019060200180831161359857829003601f168201915b5050505050613b3c565b5b8061369f575061369e82828080601f016020809104026020016040519081016040528093929190818152602001838380828437600081840152601f19601f820116905080830192505050505050506005805461361b906146bf565b80601f0160208091040260200160405190810160405280929190818152602001828054613647906146bf565b80156136945780601f1061366957610100808354040283529160200191613694565b820191906000526020600020905b81548152906001019060200180831161367757829003601f168201915b5050505050613b3c565b5b6136de576040517f08c379a00000000000000000000000000000000000000000000000000000000081526004016136d5906151bc565b60405180910390fd5b613839600760003373ffffffffffffffffffffffffffffffffffffffff1673ffffffffffffffffffffffffffffffffffffffff168152602001908152602001600020805461372b906146bf565b80601f0160208091040260200160405190810160405280929190818152602001828054613757906146bf565b80156137a45780601f10613779576101008083540402835291602001916137a4565b820191906000526020600020905b81548152906001019060200180831161378757829003601f168201915b5050505050600080546137b6906146bf565b80601f01602080910402602001604051908101604052809291908181526020018280546137e2906146bf565b801561382f5780601f106138045761010080835404028352916020019161382f565b820191906000526020600020905b81548152906001019060200180831161381257829003601f168201915b5050505050613b3c565b613878576040517f08c379a000000000000000000000000000000000000000000000000000000000815260040161386f906147a8565b60405180910390fd5b6138888888600589898989613b95565b5050505050505050565b60065481565b8181600073ffffffffffffffffffffffffffffffffffffffff16600983836040516138c4929190614648565b908152602001604051809103902060009054906101000a900473ffffffffffffffffffffffffffffffffffffffff1673ffffffffffffffffffffffffffffffffffffffff1603613949576040517f08c379a00000000000000000000000000000000000000000000000000000000081526004016139409061473c565b60405180910390fd5b613aa4600760003373ffffffffffffffffffffffffffffffffffffffff1673ffffffffffffffffffffffffffffffffffffffff1681526020019081526020016000208054613996906146bf565b80601f01602080910402602001604051908101604052809291908181526020018280546139c2906146bf565b8015613a0f5780601f106139e457610100808354040283529160200191613a0f565b820191906000526020600020905b8154815290600101906020018083116139f257829003601f168201915b505050505060008054613a21906146bf565b80601f0160208091040260200160405190810160405280929190818152602001828054613a4d906146bf565b8015613a9a5780601f10613a6f57610100808354040283529160200191613a9a565b820191906000526020600020905b815481529060010190602001808311613a7d57829003601f168201915b5050505050613b3c565b613ae3576040517f08c379a0000000000000000000000000000000000000000000000000000000008152600401613ada906147a8565b60405180910390fd5b613b348686600460098888604051613afc929190614648565b908152602001604051809103902060009054906101000a900473ffffffffffffffffffffffffffffffffffffffff1660008989613b95565b505050505050565b600081604051602001613b4f919061520d565b6040516020818303038152906040528051906020012083604051602001613b76919061520d565b6040516020818303038152906040528051906020012014905092915050565b8686600073ffffffffffffffffffffffffffffffffffffffff16600b8383604051613bc1929190614648565b908152602001604051809103902060000160019054906101000a900473ffffffffffffffffffffffffffffffffffffffff1673ffffffffffffffffffffffffffffffffffffffff1614613c49576040517f08c379a0000000000000000000000000000000000000000000000000000000008152600401613c4090615270565b60405180910390fd5b600860003373ffffffffffffffffffffffffffffffffffffffff1673ffffffffffffffffffffffffffffffffffffffff16815260200190815260200160002060009054906101000a900460ff16613cd5576040517f08c379a0000000000000000000000000000000000000000000000000000000008152600401613ccc906152dc565b60405180910390fd5b6040518060c00160405280886006811115613cf357613cf26149a5565b5b81526020018773ffffffffffffffffffffffffffffffffffffffff16815260200186815260200185858080601f016020809104026020016040519081016040528093929190818152602001838380828437600081840152601f19601f82011690508083019250505050505050815260200160001515815260200160001515815250600b8a8a604051613d86929190614648565b908152602001604051809103902060008201518160000160006101000a81548160ff02191690836006811115613dbf57613dbe6149a5565b5b021790555060208201518160000160016101000a81548173ffffffffffffffffffffffffffffffffffffffff021916908373ffffffffffffffffffffffffffffffffffffffff160217905550604082015181600101556060820151816002019081613e2a91906152fc565b5060808201518160030160006101000a81548160ff02191690831515021790555060a08201518160030160016101000a81548160ff0219169083151502179055509050507f4ae060fcd604d73f549622f9cfb12f0e178e38cb5e79796c39f6e1c913bc2aea898989604051613ea1939291906150d2565b60405180910390a1505050505050505050565b6000600c8383604051613ec8929190614648565b908152602001604051809103902080549050905092915050565b6000819050919050565b613ef581613ee2565b82525050565b6000602082019050613f106000830184613eec565b92915050565b6000604051905090565b600080fd5b600080fd5b600080fd5b600080fd5b600080fd5b60008083601f840112613f4f57613f4e613f2a565b5b8235905067ffffffffffffffff811115613f6c57613f6b613f2f565b5b602083019150836001820283011115613f8857613f87613f34565b5b9250929050565b60008060208385031215613fa657613fa5613f20565b5b600083013567ffffffffffffffff811115613fc457613fc3613f25565b5b613fd085828601613f39565b92509250509250929050565b60008115159050919050565b613ff181613fdc565b82525050565b600060208201905061400c6000830184613fe8565b92915050565b600081519050919050565b600082825260208201905092915050565b60005b8381101561404c578082015181840152602081019050614031565b60008484015250505050565b6000601f19601f8301169050919050565b600061407482614012565b61407e818561401d565b935061408e81856020860161402e565b61409781614058565b840191505092915050565b600060208201905081810360008301526140bc8184614069565b905092915050565b600073ffffffffffffffffffffffffffffffffffffffff82169050919050565b60006140ef826140c4565b9050919050565b6140ff816140e4565b811461410a57600080fd5b50565b60008135905061411c816140f6565b92915050565b60008060008060006060868803121561413e5761413d613f20565b5b600086013567ffffffffffffffff81111561415c5761415b613f25565b5b61416888828901613f39565b9550955050602086013567ffffffffffffffff81111561418b5761418a613f25565b5b61419788828901613f39565b935093505060406141aa8882890161410d565b9150509295509295909350565b6141c081613ee2565b81146141cb57600080fd5b50565b6000813590506141dd816141b7565b92915050565b6000806000806000606086880312156141ff576141fe613f20565b5b600086013567ffffffffffffffff81111561421d5761421c613f25565b5b61422988828901613f39565b9550955050602061423c888289016141ce565b935050604086013567ffffffffffffffff81111561425d5761425c613f25565b5b61426988828901613f39565b92509250509295509295909350565b60006020828403121561428e5761428d613f20565b5b600061429c8482850161410d565b91505092915050565b6000806000806000606086880312156142c1576142c0613f20565b5b600086013567ffffffffffffffff8111156142df576142de613f25565b5b6142eb88828901613f39565b955095505060206142fe8882890161410d565b935050604086013567ffffffffffffffff81111561431f5761431e613f25565b5b61432b88828901613f39565b92509250509295509295909350565b600080fd5b7f4e487b7100000000000000000000000000000000000000000000000000000000600052604160045260246000fd5b61437782614058565b810181811067ffffffffffffffff821117156143965761439561433f565b5b80604052505050565b60006143a9613f16565b90506143b5828261436e565b919050565b600067ffffffffffffffff8211156143d5576143d461433f565b5b6143de82614058565b9050602081019050919050565b82818337600083830152505050565b600061440d614408846143ba565b61439f565b9050828152602081018484840111156144295761442861433a565b5b6144348482856143eb565b509392505050565b600082601f83011261445157614450613f2a565b5b81356144618482602086016143fa565b91505092915050565b6000806040838503121561448157614480613f20565b5b600083013567ffffffffffffffff81111561449f5761449e613f25565b5b6144ab8582860161443c565b92505060206144bc858286016141ce565b9150509250929050565b6144cf816140e4565b82525050565b60006020820190506144ea60008301846144c6565b92915050565b6000806000806000806080878903121561450d5761450c613f20565b5b600087013567ffffffffffffffff81111561452b5761452a613f25565b5b61453789828a01613f39565b9650965050602061454a89828a0161410d565b945050604061455b89828a016141ce565b935050606087013567ffffffffffffffff81111561457c5761457b613f25565b5b61458889828a01613f39565b92509250509295509295509295565b600080600080604085870312156145b1576145b0613f20565b5b600085013567ffffffffffffffff8111156145cf576145ce613f25565b5b6145db87828801613f39565b9450945050602085013567ffffffffffffffff8111156145fe576145fd613f25565b5b61460a87828801613f39565b925092505092959194509250565b600081905092915050565b600061462f8385614618565b935061463c8385846143eb565b82840190509392505050565b6000614655828486614623565b91508190509392505050565b7f4e487b7100000000000000000000000000000000000000000000000000000000600052603260045260246000fd5b7f4e487b7100000000000000000000000000000000000000000000000000000000600052602260045260246000fd5b600060028204905060018216806146d757607f821691505b6020821081036146ea576146e9614690565b5b50919050565b7f546f6b656e206e6f7420666f756e640000000000000000000000000000000000600082015250565b6000614726600f8361401d565b9150614731826146f0565b602082019050919050565b6000602082019050818103600083015261475581614719565b9050919050565b7f4d757374206265206120537570657241646d696e000000000000000000000000600082015250565b600061479260148361401d565b915061479d8261475c565b602082019050919050565b600060208201905081810360008301526147c181614785565b9050919050565b7f4d7573742062652061204275726e657200000000000000000000000000000000600082015250565b60006147fe60108361401d565b9150614809826147c8565b602082019050919050565b6000602082019050818103600083015261482d816147f1565b9050919050565b7f4d7573742062652061205265766f6b6572000000000000000000000000000000600082015250565b600061486a60118361401d565b915061487582614834565b602082019050919050565b600060208201905081810360008301526148998161485d565b9050919050565b7f747820646f6573206e6f74206578697374000000000000000000000000000000600082015250565b60006148d660118361401d565b91506148e1826148a0565b602082019050919050565b60006020820190508181036000830152614905816148c9565b9050919050565b7f74782077617320616c7265616479206578656375746564000000000000000000600082015250565b600061494260178361401d565b915061494d8261490c565b602082019050919050565b6000602082019050818103600083015261497181614935565b9050919050565b6000614984838561401d565b93506149918385846143eb565b61499a83614058565b840190509392505050565b7f4e487b7100000000000000000000000000000000000000000000000000000000600052602160045260246000fd5b600781106149e5576149e46149a5565b5b50565b60008190506149f6826149d4565b919050565b6000614a06826149e8565b9050919050565b614a16816149fb565b82525050565b6000606082019050614a3160008301876144c6565b8181036020830152614a44818587614978565b9050614a536040830184614a0d565b95945050505050565b7f546f6b656e206164647265737320616c72656164792065786973740000000000600082015250565b6000614a92601b8361401d565b9150614a9d82614a5c565b602082019050919050565b60006020820190508181036000830152614ac181614a85565b9050919050565b7f546f6b656e2073796d626f6c20616c7265616479206578697374000000000000600082015250565b6000614afe601a8361401d565b9150614b0982614ac8565b602082019050919050565b60006020820190508181036000830152614b2d81614af1565b9050919050565b7f4d757374206265206120417070726f7665720000000000000000000000000000600082015250565b6000614b6a60128361401d565b9150614b7582614b34565b602082019050919050565b60006020820190508181036000830152614b9981614b5d565b9050919050565b7f74782077617320617070726f766564206279206f776e65720000000000000000600082015250565b6000614bd660188361401d565b9150614be182614ba0565b602082019050919050565b60006020820190508181036000830152614c0581614bc9565b9050919050565b7f747820776173207265766f6b6564000000000000000000000000000000000000600082015250565b6000614c42600e8361401d565b9150614c4d82614c0c565b602082019050919050565b60006020820190508181036000830152614c7181614c35565b9050919050565b7f4d75737420626520612045786563757465720000000000000000000000000000600082015250565b6000614cae60128361401d565b9150614cb982614c78565b602082019050919050565b60006020820190508181036000830152614cdd81614ca1565b9050919050565b7f617070726f76616c73206973206c657373207468616e20726571756972656400600082015250565b6000614d1a601f8361401d565b9150614d2582614ce4565b602082019050919050565b60006020820190508181036000830152614d4981614d0d565b9050919050565b60008190508160005260206000209050919050565b60008154614d72816146bf565b614d7c8186614618565b94506001821660008114614d975760018114614dac57614ddf565b60ff1983168652811515820286019350614ddf565b614db585614d50565b60005b83811015614dd757815481890152600182019150602081019050614db8565b838801955050505b50505092915050565b6000614df48284614d65565b915081905092915050565b6000604082019050614e1460008301856144c6565b614e216020830184613eec565b9392505050565b600081549050614e37816146bf565b9050919050565b60008190508160005260206000209050919050565b60006020601f8301049050919050565b600082821b905092915050565b600060088302614ea07fffffffffffffffffffffffffffffffffffffffffffffffffffffffffffffffff82614e63565b614eaa8683614e63565b95508019841693508086168417925050509392505050565b6000819050919050565b6000614ee7614ee2614edd84613ee2565b614ec2565b613ee2565b9050919050565b6000819050919050565b614f0183614ecc565b614f15614f0d82614eee565b848454614e70565b825550505050565b600090565b614f2a614f1d565b614f35818484614ef8565b505050565b5b81811015614f5957614f4e600082614f22565b600181019050614f3b565b5050565b601f821115614f9e57614f6f81614d50565b614f7884614e53565b81016020851015614f87578190505b614f9b614f9385614e53565b830182614f3a565b50505b505050565b600082821c905092915050565b6000614fc160001984600802614fa3565b1980831691505092915050565b6000614fda8383614fb0565b9150826002028217905092915050565b818103614ff85750506150d0565b61500182614e28565b67ffffffffffffffff81111561501a5761501961433f565b5b61502482546146bf565b61502f828285614f5d565b6000601f83116001811461505e576000841561504c578287015490505b6150568582614fce565b8655506150c9565b601f19841661506c87614e3e565b965061507786614d50565b60005b8281101561509f5784890154825560018201915060018501945060208101905061507a565b868310156150bc57848901546150b8601f891682614fb0565b8355505b6001600288020188555050505b5050505050505b565b600060408201905081810360008301526150ed818587614978565b90506150fc6020830184614a0d565b949350505050565b7f4d7573742062652061205375626d697474657200000000000000000000000000600082015250565b600061513a60138361401d565b915061514582615104565b602082019050919050565b600060208201905081810360008301526151698161512d565b9050919050565b7f496e76616c696420726f6c657300000000000000000000000000000000000000600082015250565b60006151a6600d8361401d565b91506151b182615170565b602082019050919050565b600060208201905081810360008301526151d581615199565b9050919050565b60006151e782614012565b6151f18185614618565b935061520181856020860161402e565b80840191505092915050565b600061521982846151dc565b915081905092915050565b7f747820616c726561647920657869737400000000000000000000000000000000600082015250565b600061525a60108361401d565b915061526582615224565b602082019050919050565b600060208201905081810360008301526152898161524d565b9050919050565b7f696e76616c6964206f776e657200000000000000000000000000000000000000600082015250565b60006152c6600d8361401d565b91506152d182615290565b602082019050919050565b600060208201905081810360008301526152f5816152b9565b9050919050565b61530582614012565b67ffffffffffffffff81111561531e5761531d61433f565b5b61532882546146bf565b615333828285614f5d565b600060209050601f8311600181146153665760008415615354578287015190505b61535e8582614fce565b8655506153c6565b601f19841661537486614d50565b60005b8281101561539c57848901518255600182019150602085019450602081019050615377565b868310156153b957848901516153b5601f891682614fb0565b8355505b6001600288020188555050505b50505050505056fea264697066735822122074d2ca741281e5a997926db320eea39eb135c7d4084229bdc5b4608747685ee464736f6c63430008180033",
  "linkReferences": {},
  "deployedLinkReferences": {}
}